{
  "contractName": "CompareUtils",
  "abi": [
    {
      "inputs": [
        {
          "internalType": "string",
          "name": "a",
          "type": "string"
        },
        {
          "internalType": "string",
          "name": "b",
          "type": "string"
        }
      ],
      "name": "compareStrings",
      "outputs": [
        {
          "internalType": "bool",
          "name": "",
          "type": "bool"
        }
      ],
      "stateMutability": "pure",
      "type": "function",
      "constant": true
    }
  ],
  "bytecode": "0x6101af61003a600b82828239805160001a60731461002d57634e487b7160e01b600052600060045260246000fd5b30600052607381538281f3fe73000000000000000000000000000000000000000030146080604052600436106100355760003560e01c8063bed34bba1461003a575b600080fd5b61005e610048366004610115565b8051602091820120825192909101919091201490565b604051901515815260200160405180910390f35b634e487b7160e01b600052604160045260246000fd5b600082601f83011261009957600080fd5b813567ffffffffffffffff808211156100b4576100b4610072565b604051601f8301601f19908116603f011681019082821181831017156100dc576100dc610072565b816040528381528660208588010111156100f557600080fd5b836020870160208301376000602085830101528094505050505092915050565b6000806040838503121561012857600080fd5b823567ffffffffffffffff8082111561014057600080fd5b61014c86838701610088565b9350602085013591508082111561016257600080fd5b5061016f85828601610088565b915050925092905056fea264697066735822122078b6bb43746da7cf12ebc55164110bc92bb3732bce93e41ca41b05cc7266d1df64736f6c63430008110033",
  "immutableReferences": {},
  "source": "// SPDX-License-Identifier: MIT\r\npragma solidity ^0.8.17;\r\n\r\nlibrary CompareUtils {\r\n\r\n    function compareStrings(string memory a, string memory b) public pure returns(bool){\r\n      return keccak256(bytes(a)) == keccak256(bytes(b));\r\n    }\r\n\r\n}",
  "sourcePath": "C:\\Users\\User\\bkchn_stack\\proj_crud_client\\contracts\\CompareUtils.sol",
  "compiler": {
    "name": "solc",
    "version": "0.8.17+commit.8df45f5f.Emscripten.clang"
  },
  "schemaVersion": "3.4.16",
  "updatedAt": "2023-09-23T22:31:44.021Z",
  "networkType": "ethereum",
  "devdoc": {
    "kind": "dev",
    "methods": {},
    "version": 1
  },
  "userdoc": {
    "kind": "user",
    "methods": {},
    "version": 1
  }
}