{
  "contractName": "StoreCustomer",
  "abi": [
    {
      "inputs": [],
      "stateMutability": "nonpayable",
      "type": "constructor"
    },
    {
      "inputs": [],
      "name": "count",
      "outputs": [
        {
          "internalType": "uint32",
          "name": "",
          "type": "uint32"
        }
      ],
      "stateMutability": "view",
      "type": "function"
    },
    {
      "inputs": [
        {
          "components": [
            {
              "internalType": "string",
              "name": "name",
              "type": "string"
            },
            {
              "internalType": "uint8",
              "name": "age",
              "type": "uint8"
            }
          ],
          "internalType": "struct StoreCustomer.Customer",
          "name": "_custumer",
          "type": "tuple"
        }
      ],
      "name": "addCustomer",
      "outputs": [],
      "stateMutability": "nonpayable",
      "type": "function"
    },
    {
      "inputs": [
        {
          "internalType": "uint32",
          "name": "id",
          "type": "uint32"
        }
      ],
      "name": "getCustomer",
      "outputs": [
        {
          "components": [
            {
              "internalType": "string",
              "name": "name",
              "type": "string"
            },
            {
              "internalType": "uint8",
              "name": "age",
              "type": "uint8"
            }
          ],
          "internalType": "struct StoreCustomer.Customer",
          "name": "",
          "type": "tuple"
        }
      ],
      "stateMutability": "view",
      "type": "function"
    },
    {
      "inputs": [
        {
          "internalType": "uint32",
          "name": "id",
          "type": "uint32"
        },
        {
          "components": [
            {
              "internalType": "string",
              "name": "name",
              "type": "string"
            },
            {
              "internalType": "uint8",
              "name": "age",
              "type": "uint8"
            }
          ],
          "internalType": "struct StoreCustomer.Customer",
          "name": "_customer",
          "type": "tuple"
        }
      ],
      "name": "updateCustomer",
      "outputs": [],
      "stateMutability": "nonpayable",
      "type": "function"
    },
    {
      "inputs": [
        {
          "internalType": "uint32",
          "name": "id",
          "type": "uint32"
        }
      ],
      "name": "deleteCustomer",
      "outputs": [],
      "stateMutability": "nonpayable",
      "type": "function"
    }
  ],
  "bytecode": "0x60a0604052600080546001600160401b031916905534801561002057600080fd5b5033608052608051610a3361004060003960006103310152610a336000f3fe608060405234801561001057600080fd5b50600436106100575760003560e01c806306661abd1461005c57806373af52031461008e57806385ec526d146100a3578063b39ed843146100c3578063cf7a4639146100d6575b600080fd5b60005461007490640100000000900463ffffffff1681565b60405163ffffffff90911681526020015b60405180910390f35b6100a161009c36600461074a565b6100e9565b005b6100b66100b1366004610798565b610255565b60405161008591906107ba565b6100a16100d1366004610798565b61032f565b6100a16100e436600461081e565b6104e2565b63ffffffff821660009081526001602052604080822081518083019092528054829082906101169061085b565b80601f01602080910402602001604051908101604052809291908181526020018280546101429061085b565b801561018f5780601f106101645761010080835404028352916020019161018f565b820191906000526020600020905b81548152906001019060200180831161017257829003601f168201915b50505091835250506001919091015460ff9081166020928301529082015191925016158015906101cd5750816020015160ff16816020015160ff1614155b156101e05760208083015160ff16908201525b8151511580159061020257508051825180516020918201208251919092012014155b1561020c57815181525b63ffffffff831660009081526001602052604090208151829190819061023290826108e4565b50602091909101516001909101805460ff191660ff909216919091179055505050565b60408051808201909152606081526000602082015263ffffffff82166000908152600160205260409081902081518083019092528054829082906102989061085b565b80601f01602080910402602001604051908101604052809291908181526020018280546102c49061085b565b80156103115780601f106102e657610100808354040283529160200191610311565b820191906000526020600020905b8154815290600101906020018083116102f457829003601f168201915b50505091835250506001919091015460ff1660209091015292915050565b7f00000000000000000000000000000000000000000000000000000000000000006001600160a01b031633146103ab5760405162461bcd60e51b815260206004820152601760248201527f43616c6c6572206973206e6f7420746865206f776e6572000000000000000000604482015260640160405180910390fd5b63ffffffff811660009081526001602052604080822081518083019092528054829082906103d89061085b565b80601f01602080910402602001604051908101604052809291908181526020018280546104049061085b565b80156104515780601f1061042657610100808354040283529160200191610451565b820191906000526020600020905b81548152906001019060200180831161043457829003601f168201915b50505091835250506001919091015460ff16602090910152805151909150156104de5763ffffffff821660009081526001602052604081209061049482826105aa565b50600101805460ff1916905560008054640100000000900463ffffffff169060046104be836109ba565b91906101000a81548163ffffffff021916908363ffffffff160217905550505b5050565b80600160006104ef610571565b63ffffffff16815260208101919091526040016000208151819061051390826108e4565b50602091909101516001909101805460ff191660ff90921691909117905560008054640100000000900463ffffffff1690600461054f836109da565b91906101000a81548163ffffffff021916908363ffffffff1602179055505050565b60008054819081906105889063ffffffff166109da565b91906101000a81548163ffffffff021916908363ffffffff1602179055905090565b5080546105b69061085b565b6000825580601f106105c6575050565b601f0160209004906000526020600020908101906105e491906105e7565b50565b5b808211156105fc57600081556001016105e8565b5090565b803563ffffffff8116811461061457600080fd5b919050565b634e487b7160e01b600052604160045260246000fd5b6040805190810167ffffffffffffffff8111828210171561065257610652610619565b60405290565b604051601f8201601f1916810167ffffffffffffffff8111828210171561068157610681610619565b604052919050565b803560ff8116811461061457600080fd5b6000604082840312156106ac57600080fd5b6106b461062f565b9050813567ffffffffffffffff808211156106ce57600080fd5b818401915084601f8301126106e257600080fd5b81356020828211156106f6576106f6610619565b610708601f8301601f19168201610658565b9250818352868183860101111561071e57600080fd5b8181850182850137600081838501015282855261073c818701610689565b818601525050505092915050565b6000806040838503121561075d57600080fd5b61076683610600565b9150602083013567ffffffffffffffff81111561078257600080fd5b61078e8582860161069a565b9150509250929050565b6000602082840312156107aa57600080fd5b6107b382610600565b9392505050565b600060208083528351604082850152805180606086015260005b818110156107f0578281018401518682016080015283016107d4565b5060006080828701015260ff838701511660408601526080601f19601f830116860101935050505092915050565b60006020828403121561083057600080fd5b813567ffffffffffffffff81111561084757600080fd5b6108538482850161069a565b949350505050565b600181811c9082168061086f57607f821691505b60208210810361088f57634e487b7160e01b600052602260045260246000fd5b50919050565b601f8211156108df57600081815260208120601f850160051c810160208610156108bc5750805b601f850160051c820191505b818110156108db578281556001016108c8565b5050505b505050565b815167ffffffffffffffff8111156108fe576108fe610619565b6109128161090c845461085b565b84610895565b602080601f831160018114610947576000841561092f5750858301515b600019600386901b1c1916600185901b1785556108db565b600085815260208120601f198616915b8281101561097657888601518255948401946001909101908401610957565b50858210156109945787850151600019600388901b60f8161c191681555b5050505050600190811b01905550565b634e487b7160e01b600052601160045260246000fd5b600063ffffffff8216806109d0576109d06109a4565b6000190192915050565b600063ffffffff8083168181036109f3576109f36109a4565b600101939250505056fea2646970667358221220266e30a24c6716d09e4e99a355e37b326d588cd0d74dff8e3c5e612b6f4c81cc64736f6c63430008110033",
  "immutableReferences": {
    "9": [
      {
        "length": 32,
        "start": 817
      }
    ]
  },
  "source": "// SPDX-License-Identifier: MIT\npragma solidity ^0.8.17;\n\ncontract StoreCustomer {\n\n    uint32 private nextId = 0;\n\n    uint32 public count = 0; \n\n    address private immutable owner; \n\n\n    constructor(){\n      owner = msg.sender;\n    }  \n\n    struct Customer{\n        string name;\n        uint8 age;\n    }\n\n    mapping (uint32 => Customer) private customers;\n\n    function getNextId() private returns(uint32){\n       return ++nextId;\n    }  \n\n    function compareStrings(string memory a, string memory b) private pure returns(bool){\n      return keccak256(bytes(a)) == keccak256(bytes(b));\n    }\n\n    function addCustomer(Customer memory _custumer) public  {\n      customers[getNextId()] = _custumer;\n      count++;   \n    }\n\n    function getCustomer(uint32 id) public view returns(Customer memory){\n      return customers[id];\n    }\n\n    function updateCustomer( uint32 id, Customer memory _customer) public {\n\n        Customer memory actualCustomer = customers[id];\n        if(actualCustomer.age != 0 && actualCustomer.age != _customer.age){\n          actualCustomer.age = _customer.age;\n        }\n\n        if (bytes(_customer.name).length > 0 &&  !compareStrings(actualCustomer.name,_customer.name)){\n          actualCustomer.name = _customer.name;\n        }\n\n        customers[id] = actualCustomer;\n\n    }\n\n    function deleteCustomer( uint32 id) public {\n       require(owner == msg.sender,\"Caller is not the owner\");\n       Customer memory actualCustomer = customers[id];\n       if (bytes(actualCustomer.name).length > 0){\n         delete customers[id];\n         count--;\n       }\n       \n    }\n\n}",
  "sourcePath": "C:\\Users\\User\\bkchn_stack\\proj_crud_client\\contracts\\StoreCustomer.sol",
  "compiler": {
    "name": "solc",
    "version": "0.8.17+commit.8df45f5f.Emscripten.clang"
  },
  "schemaVersion": "3.4.16",
  "updatedAt": "2023-09-23T22:17:41.106Z",
  "devdoc": {
    "kind": "dev",
    "methods": {},
    "version": 1
  },
  "userdoc": {
    "kind": "user",
    "methods": {},
    "version": 1
  }
}