{
  "contractName": "StoreCustomer",
  "abi": [
    {
      "inputs": [],
      "stateMutability": "nonpayable",
      "type": "constructor"
    },
    {
      "inputs": [],
      "name": "count",
      "outputs": [
        {
          "internalType": "uint32",
          "name": "",
          "type": "uint32"
        }
      ],
      "stateMutability": "view",
      "type": "function",
      "constant": true
    },
    {
      "inputs": [
        {
          "components": [
            {
              "internalType": "string",
              "name": "name",
              "type": "string"
            },
            {
              "internalType": "uint8",
              "name": "age",
              "type": "uint8"
            }
          ],
          "internalType": "struct StoreCustomer.Customer",
          "name": "_custumer",
          "type": "tuple"
        }
      ],
      "name": "addCustomer",
      "outputs": [],
      "stateMutability": "nonpayable",
      "type": "function"
    },
    {
      "inputs": [
        {
          "internalType": "uint32",
          "name": "id",
          "type": "uint32"
        }
      ],
      "name": "getCustomer",
      "outputs": [
        {
          "components": [
            {
              "internalType": "string",
              "name": "name",
              "type": "string"
            },
            {
              "internalType": "uint8",
              "name": "age",
              "type": "uint8"
            }
          ],
          "internalType": "struct StoreCustomer.Customer",
          "name": "",
          "type": "tuple"
        }
      ],
      "stateMutability": "view",
      "type": "function",
      "constant": true
    },
    {
      "inputs": [
        {
          "internalType": "uint32",
          "name": "id",
          "type": "uint32"
        },
        {
          "components": [
            {
              "internalType": "string",
              "name": "name",
              "type": "string"
            },
            {
              "internalType": "uint8",
              "name": "age",
              "type": "uint8"
            }
          ],
          "internalType": "struct StoreCustomer.Customer",
          "name": "_customer",
          "type": "tuple"
        }
      ],
      "name": "updateCustomer",
      "outputs": [],
      "stateMutability": "nonpayable",
      "type": "function"
    },
    {
      "inputs": [
        {
          "internalType": "uint32",
          "name": "id",
          "type": "uint32"
        }
      ],
      "name": "deleteCustomer",
      "outputs": [],
      "stateMutability": "nonpayable",
      "type": "function"
    }
  ],
  "bytecode": "0x60a0604052600080546001600160401b031916905534801561002057600080fd5b5033608052608051610b0061004060003960006103970152610b006000f3fe608060405234801561001057600080fd5b50600436106100575760003560e01c806306661abd1461005c57806373af52031461008e57806385ec526d146100a3578063b39ed843146100c3578063cf7a4639146100d6575b600080fd5b60005461007490640100000000900463ffffffff1681565b60405163ffffffff90911681526020015b60405180910390f35b6100a161009c3660046107b0565b6100e9565b005b6100b66100b13660046107fe565b6102bb565b6040516100859190610866565b6100a16100d13660046107fe565b610395565b6100a16100e436600461089b565b610548565b63ffffffff82166000908152600160205260408082208151808301909252805482908290610116906108d8565b80601f0160208091040260200160405190810160405280929190818152602001828054610142906108d8565b801561018f5780601f106101645761010080835404028352916020019161018f565b820191906000526020600020905b81548152906001019060200180831161017257829003601f168201915b50505091835250506001919091015460ff9081166020928301529082015191925016158015906101cd5750816020015160ff16816020015160ff1614155b156101e05760208083015160ff16908201525b81515115801590610268575080518251604051635f69a5dd60e11b815273__CompareUtils__________________________9263bed34bba9261022592600401610912565b602060405180830381865af4158015610242573d6000803e3d6000fd5b505050506040513d601f19601f820116820180604052508101906102669190610940565b155b1561027257815181525b63ffffffff831660009081526001602052604090208151829190819061029890826109b1565b50602091909101516001909101805460ff191660ff909216919091179055505050565b60408051808201909152606081526000602082015263ffffffff82166000908152600160205260409081902081518083019092528054829082906102fe906108d8565b80601f016020809104026020016040519081016040528092919081815260200182805461032a906108d8565b80156103775780601f1061034c57610100808354040283529160200191610377565b820191906000526020600020905b81548152906001019060200180831161035a57829003601f168201915b50505091835250506001919091015460ff1660209091015292915050565b7f00000000000000000000000000000000000000000000000000000000000000006001600160a01b031633146104115760405162461bcd60e51b815260206004820152601760248201527f43616c6c6572206973206e6f7420746865206f776e6572000000000000000000604482015260640160405180910390fd5b63ffffffff8116600090815260016020526040808220815180830190925280548290829061043e906108d8565b80601f016020809104026020016040519081016040528092919081815260200182805461046a906108d8565b80156104b75780601f1061048c576101008083540402835291602001916104b7565b820191906000526020600020905b81548152906001019060200180831161049a57829003601f168201915b50505091835250506001919091015460ff16602090910152805151909150156105445763ffffffff82166000908152600160205260408120906104fa8282610610565b50600101805460ff1916905560008054640100000000900463ffffffff1690600461052483610a87565b91906101000a81548163ffffffff021916908363ffffffff160217905550505b5050565b80600160006105556105d7565b63ffffffff16815260208101919091526040016000208151819061057990826109b1565b50602091909101516001909101805460ff191660ff90921691909117905560008054640100000000900463ffffffff169060046105b583610aa7565b91906101000a81548163ffffffff021916908363ffffffff1602179055505050565b60008054819081906105ee9063ffffffff16610aa7565b91906101000a81548163ffffffff021916908363ffffffff1602179055905090565b50805461061c906108d8565b6000825580601f1061062c575050565b601f01602090049060005260206000209081019061064a919061064d565b50565b5b80821115610662576000815560010161064e565b5090565b803563ffffffff8116811461067a57600080fd5b919050565b634e487b7160e01b600052604160045260246000fd5b6040805190810167ffffffffffffffff811182821017156106b8576106b861067f565b60405290565b604051601f8201601f1916810167ffffffffffffffff811182821017156106e7576106e761067f565b604052919050565b803560ff8116811461067a57600080fd5b60006040828403121561071257600080fd5b61071a610695565b9050813567ffffffffffffffff8082111561073457600080fd5b818401915084601f83011261074857600080fd5b813560208282111561075c5761075c61067f565b61076e601f8301601f191682016106be565b9250818352868183860101111561078457600080fd5b818185018285013760008183850101528285526107a28187016106ef565b818601525050505092915050565b600080604083850312156107c357600080fd5b6107cc83610666565b9150602083013567ffffffffffffffff8111156107e857600080fd5b6107f485828601610700565b9150509250929050565b60006020828403121561081057600080fd5b61081982610666565b9392505050565b6000815180845260005b818110156108465760208185018101518683018201520161082a565b506000602082860101526020601f19601f83011685010191505092915050565b6020815260008251604060208401526108826060840182610820565b905060ff60208501511660408401528091505092915050565b6000602082840312156108ad57600080fd5b813567ffffffffffffffff8111156108c457600080fd5b6108d084828501610700565b949350505050565b600181811c908216806108ec57607f821691505b60208210810361090c57634e487b7160e01b600052602260045260246000fd5b50919050565b6040815260006109256040830185610820565b82810360208401526109378185610820565b95945050505050565b60006020828403121561095257600080fd5b8151801515811461081957600080fd5b601f8211156109ac57600081815260208120601f850160051c810160208610156109895750805b601f850160051c820191505b818110156109a857828155600101610995565b5050505b505050565b815167ffffffffffffffff8111156109cb576109cb61067f565b6109df816109d984546108d8565b84610962565b602080601f831160018114610a1457600084156109fc5750858301515b600019600386901b1c1916600185901b1785556109a8565b600085815260208120601f198616915b82811015610a4357888601518255948401946001909101908401610a24565b5085821015610a615787850151600019600388901b60f8161c191681555b5050505050600190811b01905550565b634e487b7160e01b600052601160045260246000fd5b600063ffffffff821680610a9d57610a9d610a71565b6000190192915050565b600063ffffffff808316818103610ac057610ac0610a71565b600101939250505056fea2646970667358221220dbdad89fb034668c5495119611570d73f5a353863bc287c7c0f263517c42ee4d64736f6c63430008110033",
  "immutableReferences": {
    "37": [
      {
        "length": 32,
        "start": 919
      }
    ]
  },
  "source": "// SPDX-License-Identifier: MIT\npragma solidity ^0.8.17;\n\nimport \"./CompareUtils.sol\";\n\ncontract StoreCustomer {\n\n    uint32 private nextId = 0;\n\n    uint32 public count = 0; \n\n    address private immutable owner; \n\n\n    constructor(){\n      owner = msg.sender;\n    }  \n\n    struct Customer{\n        string name;\n        uint8 age;\n    }\n\n    mapping (uint32 => Customer) private customers;\n\n    function getNextId() private returns(uint32){\n       return ++nextId;\n    }  \n\n    function addCustomer(Customer memory _custumer) public  {\n      customers[getNextId()] = _custumer;\n      count++;   \n    }\n\n    function getCustomer(uint32 id) public view returns(Customer memory){\n      return customers[id];\n    }\n\n    function updateCustomer( uint32 id, Customer memory _customer) public {\n\n        Customer memory actualCustomer = customers[id];\n        if(actualCustomer.age != 0 && actualCustomer.age != _customer.age){\n          actualCustomer.age = _customer.age;\n        }\n\n        if (bytes(_customer.name).length > 0 &&  !CompareUtils.compareStrings(actualCustomer.name,_customer.name)){\n          actualCustomer.name = _customer.name;\n        }\n\n        customers[id] = actualCustomer;\n\n    }\n\n    function deleteCustomer( uint32 id) public {\n       require(owner == msg.sender,\"Caller is not the owner\");\n       Customer memory actualCustomer = customers[id];\n       if (bytes(actualCustomer.name).length > 0){\n         delete customers[id];\n         count--;\n       }\n       \n    }\n\n}",
  "sourcePath": "C:\\Users\\User\\bkchn_stack\\proj_crud_client\\contracts\\StoreCustomer.sol",
  "compiler": {
    "name": "solc",
    "version": "0.8.17+commit.8df45f5f.Emscripten.clang"
  },
  "schemaVersion": "3.4.16",
  "updatedAt": "2023-09-23T22:31:44.014Z",
  "networkType": "ethereum",
  "devdoc": {
    "kind": "dev",
    "methods": {},
    "version": 1
  },
  "userdoc": {
    "kind": "user",
    "methods": {},
    "version": 1
  }
}